:100000000C9446000C9465000C9465000C946500FB
:100010000C9465000C94B10B0C94CC0B0C94650003
:100020000C9465000C94880B0C9465000C9465008E
:100030000C9465000C9465000C9465000C946500AC
:100040000C9465000C9465000C9465000C9465009C
:100050000C9465000C9465000C9465000C9465008C
:100060000C9465000C9465000C9465000C9465007C
:100070000C9465000C9465000C94E70B0C946500DF
:100080000C9465000C9465000C94650011241FBE4F
:10009000CFEFD0E1DEBFCDBF12E0A0E0B1E0ECE8F1
:1000A000F1E200E00BBF02C007900D92A034B1074F
:1000B000D9F712E0A0E4B2E001C01D92AD34B1075F
:1000C000E1F70E942F0C0C94C4100C940000EF92E6
:1000D000FF920F931F937B018C0120E030E040E002
:1000E0005FE40E94E90288238CF0C801B70120E098
:1000F00030E040E05FE40E94DF010E9477039B0153
:10010000AC01205030404040504806C0C801B70103
:100110000E9477039B01AC01B901CA011F910F91A5
:10012000FF90EF900895A0E0B0E0E9E9F0E00C94D2
:10013000A60DDC012B01FA019C91923008F439C123
:10014000EB018881823008F433C1943069F4843043
:1001500009F02FC111969C9111978981981709F484
:1001600028C1A8E2B1E025C1843009F421C1823060
:10017000A9F4923009F01DC19A01AD0188E0EA01AD
:100180000990AE01E90109929E018150C1F7E20197
:10019000898111969C918923818308C1923009F449
:1001A00007C112962D903C901397EB018A819B8199
:1001B0001496AD90BD90CD90DC901797EC80FD80AB
:1001C0000E811F819101281B390BB90137FF04C033
:1001D00066277727621B730B603271050CF061C0D4
:1001E000121613066CF537014801062E04C09694CA
:1001F0008794779467940A94D2F721E030E040E046
:1002000050E004C0220F331F441F551F6A95D2F7D8
:1002100021503040404050402E213F214023512367
:10022000211531054105510521F021E030E040E084
:1002300050E079018A01E628F728082919293CC0ED
:10024000232BD1F1260E371E35014601062E04C0A0
:1002500096948794779467940A94D2F721E030E0DB
:1002600040E050E004C0220F331F441F551F6A9521
:10027000D2F721503040404050402A213B214C21B0
:100280005D21211531054105510521F021E030E0C6
:1002900040E050E059016A01A628B728C828D928AB
:1002A0000BC0821593052CF01C01AA24BB24650108
:1002B00003C0EE24FF24870111969C91D201119670
:1002C0008C91981709F445C0992339F0A80197013A
:1002D0002A193B094C095D0906C0A60195012E1992
:1002E0003F09400B510B57FD08C011823382228217
:1002F00024833583468357831DC081E08183338205
:10030000228288279927DC01821B930BA40BB50B53
:1003100084839583A683B7830DC0220F331F441FA8
:10032000551F2483358346835783828193810197A8
:10033000938382832481358146815781DA01C90103
:100340000197A109B1098F5F9F4FAF4FBF4328F3BA
:100350000BC0918333822282EA0CFB1C0C1D1D1DF5
:10036000E482F5820683178383E0808324813581CC
:100370004681578157FF1AC0C901AA2797FDA0954A
:10038000BA2F81709070A070B070569547953795D0
:100390002795822B932BA42BB52B84839583A6833F
:1003A000B78382819381019693838283DF0101C0A9
:1003B000D201CD01CDB7DEB7E2E10C94C20DA0E2CF
:1003C000B0E0E5EEF1E00C94B20D69837A838B83A3
:1003D0009C832D833E834F835887E9E0EE2EF12CDA
:1003E000EC0EFD1ECE010196B7010E9468058E013C
:1003F0000F5E1F4FCE010596B8010E9468058A89DD
:1004000091E089278A8BC701B801AE01475E5F4F33
:100410000E9493000E949304A096E6E00C94CE0DF7
:10042000A0E2B0E0E6E1F2E00C94B20D69837A83D9
:100430008B839C832D833E834F835887F9E0EF2E77
:10044000F12CEC0EFD1ECE010196B7010E9468054D
:100450008E010F5E1F4FCE010596B8010E94680500
:10046000C701B801AE01475E5F4F0E9493000E9432
:100470009304A096E6E00C94CE0DA8E1B0E0E3E48E
:10048000F2E00C94AE0D69837A838B839C832D8379
:100490003E834F835887B9E0EB2EF12CEC0EFD1E06
:1004A000CE010196B7010E9468058E010F5E1F4FB5
:1004B000CE010596B8010E9468052985223008F40E
:1004C0007EC03989323010F4B8017CC08A859A899F
:1004D00089278A87243011F0223031F4231709F05C
:1004E0006EC068E271E06EC0343039F41D861E863D
:1004F0001F86188A1C861B8604C0323021F484E0D3
:100500008987B7015FC02B853C858B899C89281B17
:10051000390B3C872B87ED84FE840F851889AD88C5
:10052000BE88CF88D88CEA14FB040C051D0540F466
:10053000EE0CFF1C001F111F215030403C872B8701
:1005400020E030E040E050E080E090E0A0E0B0E467
:1005500060E070E0EA14FB040C051D0540F0282B58
:10056000392B4A2B5B2BEA18FB080C091D09B695A1
:10057000A79597958795EE0CFF1C001F111F6F5FC5
:100580007F4F6F31710531F7DA01C9018F779070B4
:10059000A070B07080349105A105B10561F427FD0C
:1005A0000AC0E114F1040105110529F0205C3F4F58
:1005B0004F4F5F4F20782D873E874F87588BBE0166
:1005C000675F7F4FCB010E9493046896EAE00C942A
:1005D000CA0DA8E1B0E0EFEEF2E00C94B20D698331
:1005E0007A838B839C832D833E834F83588789E056
:1005F000E82EF12CEC0EFD1ECE010196B7010E94F3
:1006000068058E010F5E1F4FCE010596B8010E944E
:1006100068058985823040F08989823028F0C701D9
:10062000B8010E94E00501C08FEF6896E6E00C94E7
:10063000CE0DA8E0B0E0EFE1F3E00C94AF0D9B012C
:10064000AC0183E08983DA01C9018827B7FD83956E
:100650009927AA27BB27B82E211531054105510539
:1006600019F482E089833AC08823A9F0203080E021
:10067000380780E0480780E8580729F460E070E018
:1006800080E09FEC30C0EE24FF248701E21AF30AD9
:10069000040B150B02C079018A018EE1C82ED12C02
:1006A000DC82CB82ED82FE820F831887C801B701FE
:1006B0000E94440401971816190684F4082E04C0F9
:1006C000EE0CFF1C001F111F0A94D2F7ED82FE8270
:1006D0000F831887C81AD90ADC82CB82BA82CE016E
:1006E00001960E9493042896E9E00C94CB0DACE0AF
:1006F000B0E0EDE7F3E00C94B60D69837A838B8369
:100700009C83CE010196BE016B5F7F4F0E946805FE
:100710008D81823061F1823050F1843021F48E81FC
:10072000882351F12EC02F81388537FD20C06E817E
:100730002F3131051CF06623F9F023C08EE190E0E3
:10074000821B930B29853A854B855C8504C05695A1
:100750004795379527958A95D2F76623B1F050953E
:100760004095309521953F4F4F4F5F4F0EC020E091
:1007700030E040E050E009C02FEF3FEF4FEF5FE780
:1007800004C020E030E040E050E8B901CA012C96F6
:10079000E2E00C94D20DA8E0B0E0E1EDF3E00C94BF
:1007A000AE0D7B018C01611571058105910519F470
:1007B00082E0898360C083E089838EE1C82ED12CDA
:1007C000DC82CB82ED82FE820F831887C801B701DD
:1007D0000E944404FC013197F7FF3BC022273327D6
:1007E0002E1B3F0B57016801022E04C0D694C794FC
:1007F000B794A7940A94D2F740E050E060E070E02C
:1008000081E090E0A0E0B0E004C0880F991FAA1F2B
:10081000BB1F2A95D2F70197A109B1098E219F210B
:10082000A023B1230097A105B10521F041E050E0DC
:1008300060E070E04A295B296C297D294D835E8345
:100840006F8378878EE190E08E1B9F0B9C838B8358
:1008500012C0309781F00E2E04C0EE0CFF1C001F5A
:10086000111F0A94D2F7ED82FE820F831887CE1AE9
:10087000DF0ADC82CB821A82CE0101960E949304A9
:100880002896EAE00C94CA0DEF92FF920F931F9303
:100890007B018C0180E0E81680E0F80681E0080723
:1008A00080E0180788F48FEFE816F10401051105C0
:1008B00031F028F088E090E0A0E0B0E017C080E0E0
:1008C00090E0A0E0B0E012C080E0E81680E0F8061A
:1008D00080E0080781E0180728F088E190E0A0E0B8
:1008E000B0E004C080E190E0A0E0B0E020E230E0C1
:1008F00040E050E0281B390B4A0B5B0B04C01695F7
:100900000795F794E7948A95D2F7F701E05DFE4FDB
:100910008081281B310941095109C9011F910F919B
:10092000FF90EF900895DF92EF92FF920F931F9345
:10093000FC01E480F58006811781D18080818230BE
:1009400048F480E090E0A0E1B0E0E82AF92A0A2B20
:100950001B2BA5C0843009F49FC0823021F4EE2403
:10096000FF24870105C0E114F1040105110519F404
:10097000E0E0F0E096C0628173819FEF6238790712
:100980000CF05BC022E83FEF261B370B2A31310504
:100990002CF020E030E040E050E02AC0B801A70190
:1009A000022E04C076956795579547950A94D2F71D
:1009B00081E090E0A0E0B0E004C0880F991FAA1F7A
:1009C000BB1F2A95D2F70197A109B1098E219F215A
:1009D000A023B1230097A105B10521F081E090E0AB
:1009E000A0E0B0E09A01AB01282B392B4A2B5B2BFE
:1009F000DA01C9018F779070A070B07080349105D2
:100A0000A105B10539F427FF09C0205C3F4F4F4FC6
:100A10005F4F04C0215C3F4F4F4F5F4FE0E0F0E07D
:100A20002030A0E03A07A0E04A07A0E45A0710F0FF
:100A3000E1E0F0E079018A0127C06038710564F5D2
:100A4000FB01E158FF4FD801C7018F779070A0706C
:100A5000B07080349105A105B10539F4E7FE0DC0F1
:100A600080E490E0A0E0B0E004C08FE390E0A0E07C
:100A7000B0E0E80EF91E0A1F1B1F17FF05C01695F0
:100A80000795F794E794319687E016950795F794C4
:100A9000E7948A95D1F705C0EE24FF248701EFEF94
:100AA000F0E06E2F679566276795902F9F77D79414
:100AB000DD24D7948E2F8695492F462B582F5D29FC
:100AC000B701CA011F910F91FF90EF90DF90089539
:100AD000FC01DB01408151812281622F6F7770E040
:100AE000221F2227221F9381892F880F822B282FD4
:100AF00030E0991F9927991F11969C931197211502
:100B00003105A9F5411551056105710511F482E022
:100B100037C082E89FEF13969C938E9312979A01A9
:100B2000AB0167E0220F331F441F551F6A95D1F7B1
:100B300083E08C930DC0220F331F441F551F129664
:100B40008D919C911397019713969C938E93129776
:100B5000203080E0380780E0480780E4580758F3E9
:100B600014962D933D934D935C93179708952F3FC3
:100B7000310579F4411551056105710519F484E0D9
:100B80008C93089564FF03C081E08C9312C01C9283
:100B900010C02F57304013963C932E93129783E04A
:100BA0008C9387E0440F551F661F771F8A95D1F7F6
:100BB000706414964D935D936D937C93179708958D
:100BC0001F93DC01FB019C91923008F447C08081A7
:100BD000823008F443C0943051F411961C91843053
:100BE00099F58181682F70E0611B71093FC08430E5
:100BF00021F0923031F48230B9F18181882389F17A
:100C00002DC011961C9111978230F1F08181181737
:100C1000D9F412962D913C9113978281938182177A
:100C2000930794F028173907BCF014968D919D9185
:100C30000D90BC91A02D24813581468157812817C4
:100C400039074A075B0718F4112341F00AC08217DD
:100C50009307A407B50740F4112319F061E070E091
:100C600005C06FEF7FEF02C060E070E0CB011F9125
:100C70000895AA2797FDA095BA2FBC01CD010E9427
:100C800019032AE939E949E95FE30E943D020E941C
:100C90006700CB010895FF920F931F930E949B065C
:100CA00087E40E946A0781E00E94BD06F82E80E07A
:100CB0000E94BD06082F0E9490069F2D80E010E044
:100CC000082B192BC8011F910F91FF9008950E94C6
:100CD0009B0686E40E946A0780E10E946A070E94E0
:100CE000900608950E949B0686E40E946A0781E0B0
:100CF0000E946A070E94900608958898899808952E
:100D0000882321F08898809BFECF0895889A909838
:100D10000895882311F089980895899A91980895E3
:100D200081E00E94800682E08A95F1F781E00E94CE
:100D3000890681E008951F9380E00E94890615E0EE
:100D4000812F8A95F1F780E00E9480061A95F1F7CD
:100D500081E01F910895889A899A81E00E9489060E
:100D600081E00E9480060895809B03C0889A909835
:100D700008958898809BFECF0895DF92EF92FF92AE
:100D80000F931F93CF93DF93D82E899800E0C7E08D
:100D9000D0E081E0E82EF12C15E00E94B406819BA2
:100DA00008C0C7010C2E02C0880F991F0A94E2F7F1
:100DB000082B812F8A95F1F70E94B406812F8A951E
:100DC000F1F721978FEFCF3FD80739F7899A80E065
:100DD000DD2009F481E00E9489060E94B40615E036
:100DE000812F8A95F1F70E94B40681E00E9489065E
:100DF0001A95F1F7802FDF91CF911F910F91FF90FE
:100E0000EF90DF9008959F92AF92BF92CF92DF92C2
:100E1000EF92FF920F931F93CF93DF938C01962E47
:100E2000A42E8998FF24C7E0D0E031E0C32ED12C56
:100E300025E0B22E0E94B406819B08C0C6010C2E8C
:100E400002C0880F991F0A94E2F7F82A95E0E92E6C
:100E50008B2D8A95F1F70E94B4068B2D8A95F1F7B8
:100E600021978FEFCF3FD80729F72A2D30E0020FC7
:100E7000131FF801F082899A892D90E001972817B5
:100E8000390774F480E00E9489060E94B4068E2D12
:100E90008A95F1F70E94B40681E00E9489060AC093
:100EA00081E00E9489060E94B4068E2D8A95F1F792
:100EB0000E94B4068E2D8A95F1F781E0DF91CF91E3
:100EC0001F910F91FF90EF90DF90CF90BF90AF9068
:100ED0009F900895EF92FF920F931F93082F10E0B9
:100EE00055E0F52E802F881F8827881F0E948906CD
:100EF0000E94B40645E0E42E8F2D8A95F1F70E94FA
:100F0000B406000F8F2D8A95F1F71F5F183051F747
:100F100089980E94B406819B02C080E00AC08E2D91
:100F20008A95F1F70E94B406899A8E2D8A95F1F779
:100F300081E01F910F91FF90EF900895806A0E94C9
:100F40006A070895FF920F931F93CF93DF93EC01ED
:100F5000F62E0E949B068823E9F081E00E949E07FE
:100F60008823C1F010E000E009C0CE016F2D412FB1
:100F70000E940307082F882319F01F5F1F15A8F38D
:100F800081E00E94800682E08A95F1F781E00E946C
:100F9000890601C000E0802FDF91CF911F910F9152
:100FA000FF900895FF920F931F93CF93DF93182F15
:100FB000092FF62E0E949B068823F9F080E00E94FC
:100FC0009E078823D1F0812F902F9C01E90100E03A
:100FD00010E007C089910E946A07082F882319F042
:100FE0001F5F1F15B8F381E00E94800682E08A959A
:100FF000F1F781E00E94890601C000E0802FDF91B7
:10100000CF911F910F91FF9008951092980083E364
:101010008093990088E180939A008EE080939D00F0
:1010200008950F931F93DF93CF9300D000D000D08B
:10103000CDB7DEB79C0180919A008F7780939A009C
:1010400080919A008F7E80939A00DE011196E3E0F2
:10105000F1E086E001900D928150E1F7C9010E9414
:10106000390600D000D000D0EDB7FEB731968E0122
:101070000F5F1F4FADB7BEB712961C930E9311971B
:1010800020E031E033832283958384830E94ED0D39
:1010900080919A00886080939A00F8018DB79EB77E
:1010A00006960FB6F8949EBF0FBE8DBF9E012A5FB5
:1010B0003F4F80919B0085FFFCCF819180939C00E6
:1010C000E217F307B1F780919B0085FFFCCF809179
:1010D0009A00877F80939A0080919A008061809324
:1010E0009A0080919A008F7B80939A0080919A0059
:1010F000806880939A0026960FB6F894DEBF0FBEE4
:10110000CDBFCF91DF911F910F910895FF920F9363
:101110001F93DF93CF9300D000D0CDB7DEB78C0103
:10112000F62E80919A008F7780939A0080919A0092
:101130008F7E80939A00C80169E071E00E94DD0D06
:101140000097D9F480919A00886080939A0020E0FB
:1011500030E080919B0085FFFCCFF801E20FF31F88
:10116000808180939C002F5F3F4F2330310589F7AA
:1011700080919B0085FFFCCF4BC080919A008860D6
:1011800080939A0020E030E080919B0085FFFCCFA7
:10119000F801E20FF31F808180939C002F5F3F4F87
:1011A0002330310589F780919B0085FFFCCF00D06B
:1011B00000D000D0EDB7FEB731968E010F5F1F4F04
:1011C000ADB7BEB712961C930E9311978DE091E0C8
:1011D00093838283F48215820E94ED0DF8018DB70E
:1011E0009EB706960FB6F8949EBF0FBE8DBF9E01A8
:1011F0002C5F3F4F80919B0085FFFCCF81918093B6
:101200009C00E217F307B1F780919B0085FFFCCFAC
:1012100080919A00877F80939A0080919A008061E4
:1012200080939A0080919A008F7B80939A0080919E
:101230009A00806880939A000F900F900F900F9003
:10124000CF91DF911F910F91FF900895DF93CF937E
:1012500000D000D0CDB7DEB790919A009F779093E1
:101260009A0090919A009F7E90939A002091090194
:1012700030910A0140910B0150910C0129833A836E
:101280004B835C839E012F5F3F4F8D3421F4C90156
:1012900069E071E003C0C90160E171E00E94E60D00
:1012A00080919A00886080939A0090E09E012F5F61
:1012B0003F4F07C080919B0085FFFCCFE0939C00CF
:1012C0009F5FF901E90FF11DE081EE2399F780910D
:1012D0009B0085FFFCCF80919A00877F80939A00C6
:1012E00080919A00806180939A0080919A008F7B10
:1012F00080939A0080919A00806880939A000F9062
:101300000F900F900F90CF91DF910895DF92EF92A1
:10131000FF920F931F93CF93DF93182FEB01D42EDF
:1013200079010E94210D80E060E00E94150D1134CA
:1013300019F483E191E002C088E191E00E943E0D42
:101340008AE060E00E94150DCE010E943E0DCE01A4
:101350006FE171E00E94DD0D009709F500D000D02B
:1013600000D0EDB7FEB7319606E312E0ADB7BEB7D9
:1013700012961C930E9311978DE091E093838283D4
:10138000D48215820E94ED0D8DB79EB706960FB6DA
:10139000F8949EBF0FBE8DBFC8010E943E0D82E033
:1013A00061E00E94150D83E291E00E943E0DC701AD
:1013B0000E94390600D000D000D0EDB7FEB73196BC
:1013C00000E312E0ADB7BEB712961C930E931197CF
:1013D00020E031E033832283958384830E94ED0DE6
:1013E0008DB79EB706960FB6F8949EBF0FBE8DBF01
:1013F000C8010E943E0DDF91CF911F910F91FF9088
:10140000EF90DF9008958091480281FF10C089B766
:101410008F7E89BF89B78F7D89BF80919A008F7732
:1014200080939A00809148028D7F8093480280913A
:10143000480284FF09C080913A020E9426098091E7
:1014400048028F7E809348028091480287FF0BC03C
:1014500080914202909143020E94110880914802BB
:101460008F77809348028091480282FF61C080910B
:101470009A008F7780939A000E944B0690934302C4
:10148000809342028091420290914302805992409F
:1014900068F180914202909143028959994118F470
:1014A0008AE080933F02809142029091430261E47E
:1014B00070E00E94920D80E090E00E94CB03609368
:1014C00044027093450280934602909347026091D4
:1014D00044027091450280914602909147020E9419
:1014E00067002EE6261B20933F0203C084E680930C
:1014F0003F0280913F0285E381BF80913A02409193
:101500003F0220914202309143026BE372E00E945D
:10151000860980919A008F7B80939A0080919A002F
:10152000806880939A00809148028B7F8093480264
:1015300080913A028D3429F4809148028160809331
:10154000480208958091480280FF15C080919A005A
:101550008F7B80939A0080919A00806880939A0094
:1015600089B7806189BF89B7806289BF809148024D
:101570008E7F809348028091480284FF09C0809149
:101580003A020E942609809148028F7E8093480289
:101590008091480285FF34C08BE392E06FE171E0F7
:1015A0000E94DD0D009729F48BE392E069E071E081
:1015B00004C08BE392E06FE171E00E94E60D8BE3E3
:1015C00092E069E071E00E94DD0D009741F483B77D
:1015D0008F7D83BF83B78F7E83BFC49806C083B7D8
:1015E000806283BF83B78F7E83BF60913F028BE3AE
:1015F00092E00E948608809148028F7D8093480285
:101600008091480286FF46C020E030E080919B0038
:1016100085FFFCCF80919C00F901E75BFD4F808343
:101620002F5F3F4F2330310589F780919B0085FF65
:10163000FCCF80919A008F7B80939A0080919A00D2
:10164000806880939A008091490224E6829FC001BD
:101650001124805C80933F0220913F0280914A02D6
:10166000205E3AE0839FC0011124280F20933F029F
:1016700080913F0290914B02890F805380933F02EB
:1016800080913F0287E381BF60913F028BE392E04C
:101690000E9486088091480283FF06C060913F0245
:1016A0008BE392E00E9486088091480282FF26C068
:1016B00080919A008F7780939A000E944B069093B6
:1016C00043028093420280913A0240913F0220916E
:1016D0004202309143026BE372E00E9486098091DE
:1016E0009A008F7B80939A0080919A008068809303
:1016F0009A00809148028B7F8093480280913A0241
:10170000813429F4809148028260809348020895D0
:101710001F920F920FB60F9211242F938F939F93C6
:1017200080914002909141020196909341028093F2
:10173000400280914002909141028C5D954049F4B5
:101740008091480284608093480210924102109276
:1017500040029F918F912F910F900FBE0F901F907D
:1017600018951F920F920FB60F9211248F930C9B16
:101770000DC080913F028B3048F080913F02815034
:1017800080933F0280913F0285E381BF8F910F904C
:101790000FBE0F901F9018951F920F920FB60F92C9
:1017A00011248F930D9B0DC080913F02843648F425
:1017B00080913F028F5F80933F0280913F0285E3DB
:1017C00081BF8F910F900FBE0F901F9018951F92A1
:1017D0000F920FB60F9211248F939F9390919C00BC
:1017E000923411F1933418F4913491F505C09C347E
:1017F00099F0933569F527C0809148028061809304
:10180000480280913A02813421F48DE480933A02B7
:101810001FC090933A021CC080913A028D34C1F4EB
:1018200080914802806212C080913A028D3481F426
:101830008091480280648093480280919A008F775B
:1018400080939A0005C08091480280688093480286
:101850009F918F910F900FBE0F901F901895BC9A7B
:1018600014981598809148028E7F80934802809149
:101870004802826080934802809148028B7F809367
:10188000480280914802877F8093480280914802F5
:101890008F7E80934802809148028F7D809348021A
:1018A000809148028F7B80934802809148028F7715
:1018B000809348028CE00E94580D0E94AB060E9463
:1018C00072060E94670683E390E00E94050883B7D2
:1018D000806483BF83B7886083BF83B78A7F83BFF9
:1018E00083B7826083BF83B7806283BF83B78F7EF5
:1018F00083BF82E881BF85B5886085BD85B58F7B54
:1019000085BD85B58A7F85BD85B5826085BD88EC3E
:1019100083BD87B7826087BF87B7806887BF8AB774
:1019200082608ABF8AB788608ABF789480913A02C1
:10193000813429F08D3419F40E94A20AF7CF0E9455
:10194000030AF4CF662311F0A89A01C0A898A998B9
:10195000A49AA59AA69AA79AAF98AE98AD98AC9873
:1019600087FDAF9A86FDAE9A85FDAD9A84FDAC9A4F
:10197000AA9A00C0AA98AF98AE98AD98AC9883FD8B
:10198000AF9A82FDAE9A81FDAD9A80FDAC9AAA9A7B
:1019900000C0AA98AC9AAD9AAE9AAF9A08958823DF
:1019A00011F0A89A01C0A898A99AA498A598A698F9
:1019B000A798AA9A00C09C9B02C080E101C080E069
:1019C0009D9980629E9980649F998068AA9800C0C2
:1019D000AA9A00C09C9981609D9982609E998460BA
:1019E0009F998860AA98089580E00E94CF0C87FD97
:1019F000FBCF84E090E00197F1F780E00E94CF0CEC
:101A000008951F93182F0E94F40C812F60E00E940C
:101A1000A20C1F9108951F93182F0E94F40C812F80
:101A200061E00E94A20C1F910895662311F4805872
:101A300001C080540E94010D08950E94F40C90E0B2
:101A4000089581E00E94010D089582E00E94010D39
:101A500008951F93182F0E94F40C1A3049F4803413
:101A600010F080E001C080E480580E94010D04C0A5
:101A7000812F61E00E94A20C1F910895CF93DF9304
:101A8000EC0102C00E94290D89918823D9F7DF91CA
:101A9000CF910895CF93DF93EC0102C00E94290DEE
:101AA000FE01219684918823C9F7DF91CF91089593
:101AB0001F93182FA09AA19AA29AA49AA59AA69ABF
:101AC000A79A80E09DE70197F1F7AD9AAC9AAA9AA0
:101AD00000C0AA9880E097E20197F1F7AA9A00C0A7
:101AE000AA9880E890E0FC013197F1F7AA9A00C02B
:101AF000AA98FC013197F1F7AC98AA9A00C0AA986D
:101B00000197F1F788E20E94010D88E00E94010D23
:101B10000E94210D86E00E94010D812F0E94010D7F
:101B20001F910895AA1BBB1B51E107C0AA1FBB1F31
:101B3000A617B70710F0A61BB70B881F991F5A9559
:101B4000A9F780959095BC01CD0108952F923F9201
:101B50004F925F926F927F928F929F92AF92BF92BD
:101B6000CF92DF92EF92FF920F931F93CF93DF9369
:101B7000CDB7DEB7CA1BDB0B0FB6F894DEBF0FBEC6
:101B8000CDBF09942A88398848885F846E847D8413
:101B90008C849B84AA84B984C884DF80EE80FD8015
:101BA0000C811B81AA81B981CE0FD11D0FB6F8948B
:101BB000DEBF0FBECDBFED010895FB01DC018D91AD
:101BC000019080190110D9F3990B0895FB01DC01F4
:101BD00001900D920020E1F708950F931F93DF937A
:101BE000CF93CDB7DEB72E970FB6F894DEBF0FBEFA
:101BF000CDBF0D891E8986E08C831A8309838FEF00
:101C00009FE79E838D839E01275E3F4FCE01019605
:101C10006F89788DA9010E941E0E2F813885020FD1
:101C2000131FF80110822E960FB6F894DEBF0FBE78
:101C3000CDBFCF91DF911F910F9108952F923F92C9
:101C40004F925F926F927F928F929F92AF92BF92CC
:101C5000CF92DF92EF92FF920F931F93DF93CF9378
:101C6000CDB7DEB72B970FB6F894DEBF0FBECDBF52
:101C70003C012B015A01FC0117821682838181FDF0
:101C800003C06FEF7FEFC6C19AE0892E1E01089452
:101C9000211C311CF3012381F20123FD859123FFD7
:101CA00081912F01882309F4B2C1853239F423FDD3
:101CB000859123FF81912F01853229F490E0B301B2
:101CC0000E943A10E7CF982FFF24EE249924FFE1D9
:101CD000FF15D0F09B3269F09C3228F4903259F015
:101CE000933291F40EC09D3249F0903369F441E093
:101CF00024C052E0F52A84E0F82A28C098E0F92AA6
:101D000025C0E0E1FE2A22C0F7FC29C0892F8053BC
:101D10008A3070F4F6FE05C0989C902C1124980E21
:101D200015C0E89CE02C1124E80EF0E2FF2A0EC05A
:101D30009E3229F4F6FC6BC140E4F42A07C09C36BD
:101D400019F450E8F52A02C0983649F4F20123FD4F
:101D5000959123FF91912F01992309F0B8CF892FF5
:101D60008554833018F08052833038F444E050E0DA
:101D7000A40EB51E5FE359830FC0933631F093373D
:101D800079F0933509F056C020C0F5018081898330
:101D900042E050E0A40EB51E610101E010E012C067
:101DA000F501C080D180F6FC03C06FEF7FEF02C069
:101DB000692D70E042E050E0A40EB51EC6010E94FD
:101DC0002F108C015FE7F52214C0F501C080D1808F
:101DD000F6FC03C06FEF7FEF02C0692D70E042E0B8
:101DE00050E0A40EB51EC6010E9424108C0150E8DC
:101DF000F52AF3FE07C01AC080E290E0B3010E940A
:101E00003A10EA948E2D90E008171907A8F30EC037
:101E1000F601F7FC8591F7FE81916F0190E0B30127
:101E20000E943A10E110EA9401501040011511058A
:101E300079F7EAC0943611F0993669F5F7FE08C0D3
:101E4000F501208131814281538184E090E00AC014
:101E5000F501808191819C01442737FD4095542FE5
:101E600082E090E0A80EB91E9FE6F92257FF09C054
:101E700050954095309521953F4F4F4F5F4FE0E88B
:101E8000FE2ACA01B901A1012AE030E00E946610D1
:101E9000D82ED21840C0953729F41F2D1F7E2AE076
:101EA00030E01DC01F2D197F9F3661F0903720F460
:101EB000983509F0ACC00FC0903739F0983709F069
:101EC000A6C004C028E030E00AC0106114FD146010
:101ED00020E130E004C014FD166020E132E017FF7D
:101EE00008C0F501608171818281938144E050E0F6
:101EF00008C0F50180819181BC0180E090E042E062
:101F000050E0A40EB51EA1010E946610D82ED21872
:101F10008FE7F82EF122F6FE0BC05EEFF522D91402
:101F200038F4F4FE07C0F2FC05C08FEEF82202C0C0
:101F30001D2D01C0192DF4FE0DC0FE01ED0DF11D8A
:101F40008081803319F499EEF92208C01F5FF2FEF8
:101F500005C003C08F2D867809F01F5F0F2DF3FC9D
:101F600014C0F0FE0FC01E1510F09D2C0BC09D2C50
:101F70009E0C911A1E2D06C080E290E0B3010E94D3
:101F80003A101F5F1E15C0F304C01E1510F4E11AAD
:101F900001C0EE2404FF0FC080E390E0B3010E9473
:101FA0003A1002FF1DC001FD03C088E790E00EC09B
:101FB00088E590E00BC0802F867891F001FF02C089
:101FC0008BE201C080E2F7FC8DE290E0B3010E9459
:101FD0003A1006C080E390E0B3010E943A109A9450
:101FE000D914C0F3DA94F101ED0DF11D808190E078
:101FF000B3010E943A10DD20A9F706C080E290E00C
:10200000B3010E943A10EA94EE20C1F743CEF301E7
:1020100066817781CB012B960FB6F894DEBF0FBE99
:10202000CDBFCF91DF911F910F91FF90EF90DF9087
:10203000CF90BF90AF909F908F907F906F905F9068
:102040004F903F902F900895FC0105906150704093
:102050000110D8F7809590958E0F9F1F0895FC0171
:102060006150704001900110D8F7809590958E0FC7
:102070009F1F08950F931F93CF93DF938C01EB0164
:102080008B8181FF1BC082FF0DC02E813F818C811F
:102090009D812817390764F4E881F9810193F98358
:1020A000E88306C0E885F985802F0995892B31F4EE
:1020B0008E819F8101969F838E8302C00FEF1FEF59
:1020C000C801DF91CF911F910F910895FA01AA27BE
:1020D000283051F1203181F1E8946F936E7F6E5F6B
:1020E0007F4F8F4F9F4FAF4FB1E03ED0B4E03CD019
:1020F000670F781F891F9A1FA11D680F791F8A1FFC
:10210000911DA11D6A0F711D811D911DA11D20D062
:1021100009F468943F912AE0269F11243019305D1C
:102120003193DEF6CF010895462F4770405D41930D
:10213000B3E00FD0C9F7F6CF462F4F70405D4A335A
:1021400018F0495D31FD4052419302D0A9F7EACF22
:10215000B4E0A6959795879577956795BA95C9F751
:1021600000976105710508959B01AC010A2E069444
:102170005795479537952795BA95C9F7620F731FFD
:0C218000841F951FA01D0895F894FFCF48
:10218C002569003030303030004F46460025640061
:10219C004F4E004155544F004D414E55414C004F50
:1021AC004E3A004C55583A00000000000000000068
:1021BC0000010202030303030404040404040404E2
:1021CC0005050505050505050505050505050505B3
:1021DC000606060606060606060606060606060693
:1021EC000606060606060606060606060606060683
:1021FC000707070707070707070707070707070763
:10220C000707070707070707070707070707070752
:10221C000707070707070707070707070707070742
:10222C000707070707070707070707070707070732
:10223C000808080808080808080808080808080812
:10224C000808080808080808080808080808080802
:10225C0008080808080808080808080808080808F2
:10226C0008080808080808080808080808080808E2
:10227C0008080808080808080808080808080808D2
:10228C0008080808080808080808080808080808C2
:10229C0008080808080808080808080808080808B2
:1022AC0008080808080808080808080808080808A2
:1022BC0030303030300030303000414F4E3A003248
:00000001FF
